:10780000112414B714BE11FD07C013FF01C067D1C6
:1078100081E43BD1812F6BD285E08093810082E0AF
:107820008093C00088E18093C10086E08093C2000D
:1078300080E18093C4008EE03CD1219A86E020E371
:107840003CEF91E0309385002093840096BBB09B81
:10785000FECF199AA8958150A9F7EE24FF2483E062
:10786000B82EAA24A39405E0D02E11E1C12E15D183
:10787000813471F412D1182F22D1123811F482E020
:1078800005C0113811F48AE101C083E0FED09CC02C
:10789000823411F484E103C0853419F485E017D1F2
:1078A00093C0853579F4F9D0E82EFF24F6D0082F5F
:1078B00010E0102F00270E291F29000F111FFFD0E5
:1078C000780182C0863521F484E001D180E0DECFEA
:1078D000843609F04BC0E1D0E0D0082FDED0182F5D
:1078E000C0E0D1E0DAD089930C17E1F7E8D0153485
:1078F000B9F49701E0E0F1E010C04081F999FECFC2
:10790000C901019631961FBA32BD21BD40BD0FB6E7
:10791000F894FA9AF99A0FBE9C010E1771F754C0A9
:10792000F701B7BEE89507B600FCFDCFA701A0E0C0
:10793000B1E02C9130E011968C91119790E0982F46
:107940008827822B932B1296FA010C01A7BEE8958B
:1079500011244E5F5F4F0A1761F7F701D7BEE89514
:1079600007B600FCFDCFC7BEE8952EC08437F1F402
:1079700094D093D0082F91D0182FA1D0153471F442
:10798000C701EC012196F999FECF92BD81BDF89A0D
:1079900080B57BD00150C1F0CE01F3CFE701FE01ED
:1079A0008591EF0172D00150D1F70EC0853739F4BF
:1079B00086D08EE16AD085E968D08FE067CF8135C7
:1079C00011F488E076D07BD080E15FD050CF8EBDBF
:1079D0000DB407FEFDCF8EB508955D9885E08EBD90
:1079E0000DB407FEFDCF8EB51EBC0DB407FEFDCF56
:1079F0008EB55D9A817008951F93182F662321F02C
:107A000086E060E0F9DF5D9A95E05D989EBD0DB47B
:107A100007FEFDCF8EB51EBC0DB407FEFDCF8EB5A3
:107A20005D9A80FDF2CF5D981EBD0DB407FEFDCFBF
:107A30008EB51F910895EF92FF920F931F937B01D4
:107A40008C0183E060E0D8DFC801AA27BB278EBD88
:107A50000DB407FEFDCF8EB5BB27A12F902F8F2D24
:107A60008EBD0DB407FEFDCF8EB5EEBC0DB407FE86
:107A7000FDCF8EB51EBC0DB407FEFDCF8EB55D9A51
:107A80001F910F91FF90EF900895982F8091C00063
:107A900085FFFCCF9093C60008958091C00087FFBA
:107AA000FCCF8091C00084FD01C0A8958091C600E4
:107AB0000895E0E6F0E098E1908380830895EDDF9B
:107AC000803219F088E0F5DFFFCF84E1DECF1F932D
:107AD000182FE3DF1150E9F7F2DF1F9108959F920D
:107AE000AF92BF92CF92DF92EF92FF920F931F93CC
:107AF000CF93DF9386E4C9DF80E0DBDF84B18C6263
:107B000084B9559A5D9A2A9A8CB580658CBD5D982A
:107B10008FE98EBD0DB407FEFDCF8EB51EBC0DB432
:107B200007FEFDCF8EB55D9A81E061E065DF1EBC8A
:107B30000DB407FEFDCF8EB55D9A60E070E080E089
:107B400090E079DF863409F0C4C061E070E080E045
:107B500090E071DF8C3409F0BCC062E070E080E03E
:107B600090E069DF883509F0B4C066E070E080E03D
:107B700090E061DF8A3309F0ACC069E070E080E03A
:107B800090E059DF8A3309F0A4C08CE47EDF67E01F
:107B900070E080E090E04FDF082F68E070E080E068
:107BA00090E049DF10E0F02EEE2490E0E82AF92A78
:107BB000E0FC91C0199AC0E0D0E0CC24DD249924E7
:107BC000939473E0A72E65E0B62E32C08AE25DDFA3
:107BD0002A96BE0180E090E02EDF082F10E021966B
:107BE000BE0180E090E02B9726DF90E0982F882759
:107BF000802B912BFE010C0197BEE8951124229653
:107C0000CE018F779070892B19F0CE15DF0581F4A6
:107C1000F601A7BEE89507B600FCFDCFF601B7BE9A
:107C2000E89507B600FCFDCF80E890E0C80ED91EAD
:107C3000CE15DF0508F4CACF199881E187BFE89512
:107C400085E423DFEE24FF24870145E0D42E80E283
:107C500061E0D2DEC801BB2797FDB095AB2F8EBD8A
:107C60000DB407FEFDCF8EB5BB2717FDBA95A12F2A
:107C7000902F8F2D8EBD0DB407FEFDCF8EB51EBC8F
:107C80000DB407FEFDCF8EB55D9A5D98DEBC0DB4D8
:107C900007FEFDCF8EB51EBC0DB407FEFDCF8EB521
:107CA0005D9A80FDF2CF90E0E91690E7F90690E04A
:107CB000090790E0190749F080E090E1A0E0B0E00A
:107CC000E80EF91E0A1F1B1FC2CF5D9A88E0F1DE85
:107CD000FFCF88E5DADEDF91CF911F910F91FF9002
:107CE000EF90DF90CF90BF90AF909F900895282E97
:0A7CF00080E0DFDEEE27FF27099495
:027FFE00021A65
:040000030000780081
:00000001FF
