:107800008FE0D2D1112414B714BE83E552D111FDFB
:107810000DC084E54ED113FF05C089E54AD1DAD108
:107820008AE547D181E445D1812F94D385E08093C7
:10783000810082E08093C00088E18093C10086E0EF
:107840008093C20080E18093C4008EE0ADD1219A84
:1078500086E020E33CEF91E03093850020938400A4
:1078600096BBB09BFECF199AA8958150A9F780E2EC
:1078700077D18EED75D18DEA73D18EEB71D18FEE0C
:107880006FD1EE24FF2483E0B82EAA24A39405E050
:10789000D02E11E1C12E7CD1813471F479D1182F11
:1078A00089D1123811F482E005C0113811F48AE14F
:1078B00001C083E0FED09CC0823411F484E103C097
:1078C000853419F485E07ED193C0853579F460D193
:1078D000E82EFF245DD1082F10E0102F00270E297D
:1078E0001F29000F111F66D1780182C0863521F44F
:1078F00084E068D180E0DECF843609F04BC048D107
:1079000047D1082F45D1182FC0E0D1E041D189934C
:107910000C17E1F74FD11534B9F49701E0E0F1E02D
:1079200010C04081F999FECFC901019631961FBA66
:1079300032BD21BD40BD0FB6F894FA9AF99A0FBE38
:107940009C010E1771F754C0F701B7BEE89507B652
:1079500000FCFDCFA701A0E0B1E02C9130E0119632
:107960008C91119790E0982F8827822B932B129659
:10797000FA010C01A7BEE89511244E5F5F4F0A176C
:1079800061F7F701D7BEE89507B600FCFDCFC7BE8B
:10799000E8952EC08437F1F4FBD0FAD0082FF8D048
:1079A000182F08D1153471F4C701EC012196F9990B
:1079B000FECF92BD81BDF89A80B57BD00150C1F059
:1079C000CE01F3CFE701FE018591EF0172D00150A6
:1079D000D1F70EC0853739F4EDD08EE16AD085E954
:1079E00068D08FE067CF813511F488E0DDD0E2D038
:1079F00080E15FD050CF8EBD0DB407FEFDCF8EB5B8
:107A000008955D9885E08EBD0DB407FEFDCF8EB55F
:107A10001EBC0DB407FEFDCF8EB55D9A8170089532
:107A20001F93182F662321F086E060E0F9DF5D9A4E
:107A300095E05D989EBD0DB407FEFDCF8EB51EBCD2
:107A40000DB407FEFDCF8EB55D9A80FDF2CF5D9837
:107A50001EBD0DB407FEFDCF8EB51F910895EF92A8
:107A6000FF920F931F937B018C0183E060E0D8DFCE
:107A7000C801AA27BB278EBD0DB407FEFDCF8EB56A
:107A8000BB27A12F902F8F2D8EBD0DB407FEFDCFEC
:107A90008EB5EEBC0DB407FEFDCF8EB51EBC0DB489
:107AA00007FEFDCF8EB55D9A1F910F91FF90EF906D
:107AB0000895982F8091C00085FFFCCF9093C60059
:107AC0000895009711F480E345C08130910511F4C9
:107AD00081E340C08230910511F482E33BC08330E2
:107AE000910511F483E336C08430910511F484E3E9
:107AF00031C08530910511F485E32CC086309105A5
:107B000011F486E327C08730910511F487E322C082
:107B10008830910511F488E31DC08930910511F476
:107B200089E318C08A30910511F481E413C08B30C9
:107B3000910511F482E40EC08C30910511F483E4B8
:107B400009C08D30910511F484E404C08E30910594
:107B500011F485E4AECF0F9711F486E4AACF08950F
:107B60000F931F93082F112707FD1095C801807FE1
:107B7000907024E0969587952A95E1F7A2DFC801D9
:107B80008F7090709EDF8EE294DF1F910F910895A9
:107B90008091C00087FFFCCF8091C00084FD01C0B0
:107BA000A8958091C6000895E0E6F0E098E1908302
:107BB00080830895EDDF803219F088E0F5DFFFCF94
:107BC00084E177CF1F93182FE3DF1150E9F7F2DF3D
:107BD0001F9108959F92AF92BF92CF92DF92EF9242
:107BE000FF920F931F93CF93DF9382E08093C000A7
:107BF00088E18093C10086E08093C20080E1809399
:107C0000C40086E456DF80E0CFDF84B18C6284B9A3
:107C1000559A5D9A2A9A8CB580658CBD5D988FE9DE
:107C20008EBD0DB407FEFDCF8EB51EBC0DB407FE94
:107C3000FDCF8EB51EBC0DB407FEFDCF0EB51EBC2C
:107C40000DB407FEFDCF1EB58BDF802F89DF812F9E
:107C500087DF8DE22EDF8FE98EBD0DB407FEFDCFED
:107C60008EB51EBC0DB407FEFDCF8EB51EBC0DB487
:107C700007FEFDCF0EB51EBC0DB407FEFDCF1EB531
:107C80006FDF802F6DDF812F6BDF8DE212DF8FE9D9
:107C90008EBD0DB407FEFDCF8EB51EBC0DB407FE24
:107CA000FDCF8EB51EBC0DB407FEFDCF0EB51EBCBC
:107CB0000DB407FEFDCF1EB553DF802F51DF812F9E
:107CC0004FDF5D9A8DE2F5DE84E4F3DE002311F4EC
:107CD00080E303C00F3F11F486E6EBDE83E6E9DEC6
:107CE00081E061E09DDE1EBC0DB407FEFDCF8EB5C8
:107CF0005D9A84E6DEDEEE24FF248701C801B70129
:107D0000AEDE2EDF0894E11CF11C011D111D20E1E7
:107D1000E216F1040105110589F78FE98EBD0DB456
:107D200007FEFDCF8EB58DE2C4DE8DE2C2DE1EBC45
:107D30000DB407FEFDCF8EB51EBC0DB407FEFDCF02
:107D40000EB51EBC0DB407FEFDCF1EB509DF802F9A
:107D500007DF812F05DF8DE2ACDE8DE2AADE60E079
:107D600070E080E090E07BDE863409F0E5C061E001
:107D700070E080E090E073DE8C3409F0DDC062E0FA
:107D800070E080E090E06BDE883509F0D5C066E0F9
:107D900070E080E090E063DE8A3309F0CDC069E0F6
:107DA00070E080E090E05BDE8A3309F0C5C08CE4CF
:107DB00080DE67E070E080E090E051DE082F68E050
:107DC00070E080E090E04BDE10E0D02FCC2790E018
:107DD000C82BD92BC0FDB2C0199AEE24FF24CC24A5
:107DE000DD249924939473E0A72E65E0B62E3DC060
:107DF0008AE25FDE8AE090E0E80EF91EB70180E0DB
:107E000090E02DDE082F10E00894E11CF11CB70172
:107E100080E090E0A5EFBFEFEA0EFB1E20DE90E0D1
:107E2000982F8827802B912BF7010C0197BEE8959E
:107E3000112422E030E0E20EF31EC7018F7790702C
:107E4000892B19F0EC16FD0681F4F601A7BEE89522
:107E500007B600FCFDCFF601B7BEE89507B600FCFB
:107E6000FDCF20E830E0C20ED31EEC16FD0608F46C
:107E7000BFCF199881E187BFE89586E61ADE85E4D1
:107E800018DEEE24FF24870180E261E0C9DDC8012D
:107E9000BB2797FDB095AB2F8EBD0DB407FEFDCF70
:107EA0008EB5BB2717FDBA95A12F902F8F2D8EBDB4
:107EB0000DB407FEFDCF8EB51EBC0DB407FEFDCF81
:107EC0008EB530E0E31630E7F30630E0030730E02C
:107ED000130749F080E090E1A0E0B0E0E80EF91E61
:107EE0000A1F1B1FD1CF5D9A87E6E3DD5D9882E014
:107EF00061E096DD1EBC0DB407FEFDCF8EB51EBC45
:107F00000DB407FEFDCF8EB51EBC0DB407FEFDCF30
:107F10008EB581E08EBD0DB407FEFDCF8EB51EBCC3
:107F20000DB407FEFDCF8EB55D9A88E6C2DD88E010
:107F30003BDE89E6BEDDFFCF88E5BBDDDF91CF917B
:107F40001F910F91FF90EF90DF90CF90BF90AF9077
:107F50009F900895282E80E027DEEE27FF270994C2
:027FFE00021A65
:040000030000780081
:00000001FF
